S0150000496E746572727570745F4354432E7372656309
S11300000C9434000C9446000C9446000C94460066
S11300100C9446000C9446000C9446000C94460044
S11300200C9446000C9446000C9446000C94460034
S11300300C9446000C9446000C9448000C94460022
S11300400C9446000C9446000C9446000C94460014
S11300500C9446000C9446000C9446000C94460004
S11300600C9446000C94460011241FBECFEFD8E038
S1130070DEBFCDBF21E0A0E0B1E001C01D92A230FF
S1130080B207E1F70E946C000C9485000C94000008
S11300901F920F920FB60F9211242F938F939F9359
S11300A08091000190910101019690930101809348
S11300B00001883E934040F095B180E2892785B9DC
S11300C010920101109200019F918F912F910F9036
S11300D00FBE0F901F90189584B1806284B989EF88
S11300E087BD789416BC84B58E7F84BD84B5826048
S11300F084BD85B5836085BD85B58B7F85BDEEE602
S1110100F0E0808182608083FFCFF894FFCF0F
S9030000FC
