S016000054524146464943205369676E616C2E7372656391
S11300000C9434000C943E000C943E000C943E007E
S11300100C943E000C943E000C943E000C943E0064
S11300200C943E000C943E000C943E000C943E0054
S11300300C943E000C943E000C943E000C943E0044
S11300400C943E000C943E000C943E000C943E0034
S11300500C943E000C943E000C943E000C943E0024
S11300600C943E000C943E0011241FBECFEFD8E048
S1130070DEBFCDBF0E947A000C9484000C94000073
S113008085B1826085B985B18B7F85B985B1877F5C
S113009085B92FEF83E294EF215080409040E1F73F
S11300A000C00000089585B18D7F85B985B1846055
S11300B085B985B1877F85B92FEF8FE493EC215003
S11300C080409040E1F700C00000089585B18D7F25
S11300D085B985B18B7F85B985B1886085B92AEAF0
S11300E036EE86E991E02150304080409040D9F7C7
S11300F00000089584B18E6084B90E9440000E947B
S10F010053000E946600F9CFF894FFCF72
S9030000FC
