S00E00005377697463682E73726563A4
S11300000C9434000C943E000C943E000C943E007E
S11300100C943E000C943E000C943E000C943E0064
S11300200C943E000C943E000C943E000C943E0054
S11300300C943E000C943E000C943E000C943E0044
S11300400C943E000C943E000C943E000C943E0034
S11300500C943E000C943E000C943E000C943E0024
S11300600C943E000C943E0011241FBECFEFD8E048
S1130070DEBFCDBF0E9440000C9451000C940000E0
S113008084B1846084B98AB18B7F8AB989B18823A9
S113009021F085B1846085B9F9CF85B18B7F85B9AD
S10900A0F5CFF894FFCF38
S9030000FC
