:100000000C9434000C943E000C943E000C943E0082
:100010000C943E000C943E000C943E000C943E0068
:100020000C943E000C943E000C943E000C943E0058
:100030000C943E000C943E000C943E000C943E0048
:100040000C943E000C943E000C943E000C943E0038
:100050000C943E000C943E000C943E000C943E0028
:100060000C943E000C943E0011241FBECFEFD8E04C
:10007000DEBFCDBF0E9455000C946F000C940000B1
:1000800088B1806188B988B18F7D88B9089588B1B9
:100090008F7E88B988B1806288B9089588B18F7ED3
:1000A00088B988B18F7D88B9089587B1806387B991
:1000B0008BB186608BB98AB1897F8AB9499B05C0AB
:1000C0004A9903C00E944700F9CF4A9B05C049994D
:1000D00003C00E944000F2CF0E944E00EFCFF89480
:0200E000FFCF50
:00000001FF
