:100000000C9434000C9449000C9449000C94490061
:100010000C9449000C9449000C9449000C9449003C
:100020000C9449000C9449000C9449000C9449002C
:100030000C9449000C9449000C9449000C9449001C
:100040000C9449000C9449000C9449000C9449000C
:100050000C9449000C9449000C9449000C944900FC
:100060000C9449000C94490011241FBECFEFD8E036
:10007000DEBFCDBF11E0A0E0B1E0E6E9F2E002C0F2
:1000800005900D92A030B107D9F70E944B000C9457
:1000900049010C9400000E94CB0084B18C6284B9A9
:1000A00084B18F7E84B98CB581658CBD8CB5817F20
:1000B0008CBD85B18B7F85B980ED8EBD0DB407FEFB
:1000C000FDCF8EB51EBC0DB407FEFDCF8EB585B13C
:1000D000846085B985B18B7F85B984E78EBD0DB409
:1000E00007FEFDCF8EB587E28EBD0DB407FEFDCFB6
:1000F0008EB585B1846085B985B18B7F85B98AEF6E
:100100008EBD0DB407FEFDCF8EB51EBC0DB407FE2F
:10011000FDCF4EB51EBC0DB407FEFDCF8EB51EBC87
:100120000DB407FEFDCF2EB550E060E070E0032E69
:100130003CE0440F551F661F771F3A95D1F7302DCD
:1001400090E0A0E0B0E0880F991FAA1FBB1F880FA6
:10015000991FAA1FBB1F880F991FAA1FBB1F880FBB
:10016000991FAA1FBB1F842B952BA62BB72B22955B
:100170002F70BC01CD01622B0E94EB008AE00E942F
:10018000D7002FEF83ED90E3215080409040E1F7BE
:1001900000C000008ECF1092C50087E68093C40097
:1001A00088E08093C10086E08093C200089590911A
:1001B000C00095FFFCCF8093C6000895CF93DF93D6
:1001C000EC0103C021960E94D70088818111FACFEB
:1001D000DF91CF910895CF93DF93CDB7DEB72C9702
:1001E0000FB6F894DEBF0FBECDBF2AE0AE014F5F61
:1001F0005F4F0E940801CE0101960E94DE002C96FE
:100200000FB6F894DEBF0FBECDBFDF91CF9108953A
:10021000BB272A3051F4992342F4BDE29095809592
:10022000709561957F4F8F4F9F4F0C941801BB279E
:10023000FA01A62F6217710581059105330B30FB7A
:1002400066F0AA27660F771F881F991FAA1FA2179B
:1002500010F0A21B63953850A9F7A05DAA3308F0EF
:10026000A95DA19336F7B111B1931082CA010C9424
:100270003901DC01FC01672F71917723E1F7329797
:1002800004C07C916D9370836291AE17BF07C8F371
:060290000895F894FFCF71
:00000001FF
