S01A000065787465726E616C5F696E746572727570742E737265635B
S11300000C9434000C9440000C943E000C943E007C
S11300100C943E000C943E000C943E000C943E0064
S11300200C943E000C943E000C943E000C943E0054
S11300300C943E000C943E000C943E000C943E0044
S11300400C943E000C943E000C943E000C943E0034
S11300500C943E000C943E000C943E000C943E0024
S11300600C943E000C943E0011241FBECFEFD8E048
S1130070DEBFCDBF0E9460000C947A000C94000097
S11300801F920F920FB60F9211242F933F938F93C9
S11300909F9395B180E2892785B92AEA36EE86E9ED
S11300A091E02150304080409040D9F700009F916A
S11300B08F913F912F910F900FBE0F901F90189525
S11300C078948CB381608CBB8AB18B7F8AB984B1FC
S11300D0806284B985B1806285B985B18F7E85B926
S11300E02FEF83ED90E3215080409040E1F700C072
S10B00F00000F0CFF894FFCFEB
S9030000FC
