S00F0000626C696E6B20322E73726563B3
S11300000C9434000C943E000C943E000C943E007E
S11300100C943E000C943E000C943E000C943E0064
S11300200C943E000C943E000C943E000C943E0054
S11300300C943E000C943E000C943E000C943E0044
S11300400C943E000C943E000C943E000C943E0034
S11300500C943E000C943E000C943E000C943E0024
S11300600C943E000C943E0011241FBECFEFD8E048
S1130070DEBFCDBF0E9440000C9480000C940000B1
S113008084B1866084B985B1826085B985B18B7F7E
S113009085B92FEF83E294EF215080409040E1F73F
S11300A000C0000085B18D7F85B985B18B7F85B98E
S11300B02FEF83E294EF215080409040E1F700C09D
S11300C0000085B18D7F85B985B1846085B92FEF36
S11300D083E294EF215080409040E1F700C000009B
S11300E085B18D7F85B985B18B7F85B92FEF83E28B
S11300F094EF215080409040E1F700C00000C3CF4E
S1070100F894FFCF9D
S9030000FC
