:100000000C9434000C943E000C943E000C943E0082
:100010000C943E000C943E000C943E000C943E0068
:100020000C943E000C943E000C943E000C943E0058
:100030000C943E000C943E000C943E000C943E0048
:100040000C943E000C943E000C943E000C943E0038
:100050000C943E000C943E000C943E000C943E0028
:100060000C943E000C943E0011241FBECFEFD8E04C
:10007000DEBFCDBF0E9440000C9453000C940000E2
:100080008AB18D7F8AB98BB182608BB984B180616E
:1000900084B9499904C085B1806185B9FACF85B129
:0A00A0008F7E85B9F6CFF894FFCFEC
:00000001FF
