S01500004D6F64756C61725F54696D65722E73726563DB
S11300000C9434000C943E000C943E000C943E007E
S11300100C943E000C943E000C943E000C943E0064
S11300200C943E000C943E000C943E000C943E0054
S11300300C943E000C943E000C943E000C943E0044
S11300400C943E000C943E000C943E000C943E0034
S11300500C943E000C943E000C943E000C943E0024
S11300600C943E000C943E0011241FBECFEFD8E048
S1130070DEBFCDBF0E945C000C946A000C940000AB
S113008016BC83E087BD82E084BD84B58E7F84BDC9
S113009085B5836085BD85B58B7F85BD089506C014
S11300A0A99BFECF85B3826085BBC9019C01215009
S11300B03109892BA9F7089584B1806284B90E941B
S11300C0400095B180E2892785B988EB9BE00E94C6
S10B00D04F00F7CFF894FFCFB5
S9030000FC
