:100000000C9434000C943E000C943E000C943E0082
:100010000C943E000C943E000C943E000C943E0068
:100020000C943E000C943E000C943E000C943E0058
:100030000C943E000C943E000C943E000C943E0048
:100040000C943E000C943E000C943E000C943E0038
:100050000C943E000C943E000C943E000C943E0028
:100060000C943E000C943E0011241FBECFEFD8E04C
:10007000DEBFCDBF0E9440000C9461000C940000D4
:100080008AB180648AB98AB180628AB984B5816094
:1000900084BD84B58D7F84BD84B5806884BD84B5FE
:1000A0008F7B84BD85B58D7F85BD85B5856085BD1C
:1000B00080E090E002C087BD01968D349105DCF3AD
:0600C000F7CFF894FFCF1A
:00000001FF
