:100000000C9434000C943E000C943E000C943E0082
:100010000C943E000C943E000C943E000C943E0068
:100020000C943E000C943E000C943E000C943E0058
:100030000C943E000C943E000C943E000C943E0048
:100040000C943E000C943E000C943E000C943E0038
:100050000C943E000C943E000C943E000C943E0028
:100060000C943E000C943E0011241FBECFEFD8E04C
:10007000DEBFCDBF0E9470000C947A000C9400008B
:1000800085B1826085B985B18B7F85B92FEF83E219
:1000900094EF215080409040E1F700C000000895A7
:1000A00085B18D7F85B985B18B7F85B92FEF83E2CF
:1000B00094EF215080409040E1F700C00000089587
:1000C00085B18D7F85B985B1846085B92FEF83E2D5
:1000D00094EF215080409040E1F700C00000089567
:1000E00084B1866084B90E9440000E9450000E9442
:0800F0006000F9CFF894FFCF86
:00000001FF
